{
  "contractName": "FinxterNFT",
  "abi": [
    {
      "inputs": [
        {
          "internalType": "string",
          "name": "_initBaseURI",
          "type": "string"
        }
      ],
      "stateMutability": "nonpayable",
      "type": "constructor"
    },
    {
      "anonymous": false,
      "inputs": [
        {
          "indexed": true,
          "internalType": "address",
          "name": "owner",
          "type": "address"
        },
        {
          "indexed": true,
          "internalType": "address",
          "name": "approved",
          "type": "address"
        },
        {
          "indexed": true,
          "internalType": "uint256",
          "name": "tokenId",
          "type": "uint256"
        }
      ],
      "name": "Approval",
      "type": "event"
    },
    {
      "anonymous": false,
      "inputs": [
        {
          "indexed": true,
          "internalType": "address",
          "name": "owner",
          "type": "address"
        },
        {
          "indexed": true,
          "internalType": "address",
          "name": "operator",
          "type": "address"
        },
        {
          "indexed": false,
          "internalType": "bool",
          "name": "approved",
          "type": "bool"
        }
      ],
      "name": "ApprovalForAll",
      "type": "event"
    },
    {
      "anonymous": false,
      "inputs": [
        {
          "indexed": true,
          "internalType": "address",
          "name": "previousOwner",
          "type": "address"
        },
        {
          "indexed": true,
          "internalType": "address",
          "name": "newOwner",
          "type": "address"
        }
      ],
      "name": "OwnershipTransferred",
      "type": "event"
    },
    {
      "anonymous": false,
      "inputs": [
        {
          "indexed": true,
          "internalType": "address",
          "name": "from",
          "type": "address"
        },
        {
          "indexed": true,
          "internalType": "address",
          "name": "to",
          "type": "address"
        },
        {
          "indexed": true,
          "internalType": "uint256",
          "name": "tokenId",
          "type": "uint256"
        }
      ],
      "name": "Transfer",
      "type": "event"
    },
    {
      "stateMutability": "payable",
      "type": "fallback",
      "payable": true
    },
    {
      "inputs": [
        {
          "internalType": "address",
          "name": "to",
          "type": "address"
        },
        {
          "internalType": "uint256",
          "name": "tokenId",
          "type": "uint256"
        }
      ],
      "name": "approve",
      "outputs": [],
      "stateMutability": "nonpayable",
      "type": "function"
    },
    {
      "inputs": [
        {
          "internalType": "address",
          "name": "owner",
          "type": "address"
        }
      ],
      "name": "balanceOf",
      "outputs": [
        {
          "internalType": "uint256",
          "name": "",
          "type": "uint256"
        }
      ],
      "stateMutability": "view",
      "type": "function",
      "constant": true
    },
    {
      "inputs": [],
      "name": "cost",
      "outputs": [
        {
          "internalType": "uint256",
          "name": "",
          "type": "uint256"
        }
      ],
      "stateMutability": "view",
      "type": "function",
      "constant": true
    },
    {
      "inputs": [
        {
          "internalType": "uint256",
          "name": "tokenId",
          "type": "uint256"
        }
      ],
      "name": "getApproved",
      "outputs": [
        {
          "internalType": "address",
          "name": "",
          "type": "address"
        }
      ],
      "stateMutability": "view",
      "type": "function",
      "constant": true
    },
    {
      "inputs": [
        {
          "internalType": "address",
          "name": "owner",
          "type": "address"
        },
        {
          "internalType": "address",
          "name": "operator",
          "type": "address"
        }
      ],
      "name": "isApprovedForAll",
      "outputs": [
        {
          "internalType": "bool",
          "name": "",
          "type": "bool"
        }
      ],
      "stateMutability": "view",
      "type": "function",
      "constant": true
    },
    {
      "inputs": [],
      "name": "maxMintAmountPerTx",
      "outputs": [
        {
          "internalType": "uint256",
          "name": "",
          "type": "uint256"
        }
      ],
      "stateMutability": "view",
      "type": "function",
      "constant": true
    },
    {
      "inputs": [],
      "name": "maxSupply",
      "outputs": [
        {
          "internalType": "uint256",
          "name": "",
          "type": "uint256"
        }
      ],
      "stateMutability": "view",
      "type": "function",
      "constant": true
    },
    {
      "inputs": [],
      "name": "name",
      "outputs": [
        {
          "internalType": "string",
          "name": "",
          "type": "string"
        }
      ],
      "stateMutability": "view",
      "type": "function",
      "constant": true
    },
    {
      "inputs": [],
      "name": "owner",
      "outputs": [
        {
          "internalType": "address",
          "name": "",
          "type": "address"
        }
      ],
      "stateMutability": "view",
      "type": "function",
      "constant": true
    },
    {
      "inputs": [
        {
          "internalType": "uint256",
          "name": "tokenId",
          "type": "uint256"
        }
      ],
      "name": "ownerOf",
      "outputs": [
        {
          "internalType": "address",
          "name": "",
          "type": "address"
        }
      ],
      "stateMutability": "view",
      "type": "function",
      "constant": true
    },
    {
      "inputs": [],
      "name": "renounceOwnership",
      "outputs": [],
      "stateMutability": "nonpayable",
      "type": "function"
    },
    {
      "inputs": [
        {
          "internalType": "address",
          "name": "from",
          "type": "address"
        },
        {
          "internalType": "address",
          "name": "to",
          "type": "address"
        },
        {
          "internalType": "uint256",
          "name": "tokenId",
          "type": "uint256"
        }
      ],
      "name": "safeTransferFrom",
      "outputs": [],
      "stateMutability": "nonpayable",
      "type": "function"
    },
    {
      "inputs": [
        {
          "internalType": "address",
          "name": "from",
          "type": "address"
        },
        {
          "internalType": "address",
          "name": "to",
          "type": "address"
        },
        {
          "internalType": "uint256",
          "name": "tokenId",
          "type": "uint256"
        },
        {
          "internalType": "bytes",
          "name": "_data",
          "type": "bytes"
        }
      ],
      "name": "safeTransferFrom",
      "outputs": [],
      "stateMutability": "nonpayable",
      "type": "function"
    },
    {
      "inputs": [
        {
          "internalType": "address",
          "name": "operator",
          "type": "address"
        },
        {
          "internalType": "bool",
          "name": "approved",
          "type": "bool"
        }
      ],
      "name": "setApprovalForAll",
      "outputs": [],
      "stateMutability": "nonpayable",
      "type": "function"
    },
    {
      "inputs": [
        {
          "internalType": "bytes4",
          "name": "interfaceId",
          "type": "bytes4"
        }
      ],
      "name": "supportsInterface",
      "outputs": [
        {
          "internalType": "bool",
          "name": "",
          "type": "bool"
        }
      ],
      "stateMutability": "view",
      "type": "function",
      "constant": true
    },
    {
      "inputs": [],
      "name": "symbol",
      "outputs": [
        {
          "internalType": "string",
          "name": "",
          "type": "string"
        }
      ],
      "stateMutability": "view",
      "type": "function",
      "constant": true
    },
    {
      "inputs": [
        {
          "internalType": "uint256",
          "name": "tokenId",
          "type": "uint256"
        }
      ],
      "name": "tokenURI",
      "outputs": [
        {
          "internalType": "string",
          "name": "",
          "type": "string"
        }
      ],
      "stateMutability": "view",
      "type": "function",
      "constant": true
    },
    {
      "inputs": [
        {
          "internalType": "address",
          "name": "from",
          "type": "address"
        },
        {
          "internalType": "address",
          "name": "to",
          "type": "address"
        },
        {
          "internalType": "uint256",
          "name": "tokenId",
          "type": "uint256"
        }
      ],
      "name": "transferFrom",
      "outputs": [],
      "stateMutability": "nonpayable",
      "type": "function"
    },
    {
      "inputs": [
        {
          "internalType": "address",
          "name": "newOwner",
          "type": "address"
        }
      ],
      "name": "transferOwnership",
      "outputs": [],
      "stateMutability": "nonpayable",
      "type": "function"
    },
    {
      "inputs": [],
      "name": "uriPrefix",
      "outputs": [
        {
          "internalType": "string",
          "name": "",
          "type": "string"
        }
      ],
      "stateMutability": "view",
      "type": "function",
      "constant": true
    },
    {
      "inputs": [
        {
          "internalType": "address",
          "name": "",
          "type": "address"
        }
      ],
      "name": "whitelisted",
      "outputs": [
        {
          "internalType": "bool",
          "name": "",
          "type": "bool"
        }
      ],
      "stateMutability": "view",
      "type": "function",
      "constant": true
    },
    {
      "stateMutability": "payable",
      "type": "receive",
      "payable": true
    },
    {
      "inputs": [],
      "name": "totalSupply",
      "outputs": [
        {
          "internalType": "uint256",
          "name": "",
          "type": "uint256"
        }
      ],
      "stateMutability": "view",
      "type": "function",
      "constant": true
    },
    {
      "inputs": [
        {
          "internalType": "uint256",
          "name": "_mintAmount",
          "type": "uint256"
        }
      ],
      "name": "mint",
      "outputs": [],
      "stateMutability": "payable",
      "type": "function",
      "payable": true
    },
    {
      "inputs": [
        {
          "internalType": "address",
          "name": "_owner",
          "type": "address"
        }
      ],
      "name": "walletOfOwner",
      "outputs": [
        {
          "internalType": "uint256[]",
          "name": "",
          "type": "uint256[]"
        }
      ],
      "stateMutability": "view",
      "type": "function",
      "constant": true
    },
    {
      "inputs": [
        {
          "internalType": "string",
          "name": "_uriPrefix",
          "type": "string"
        }
      ],
      "name": "setUriPrefix",
      "outputs": [],
      "stateMutability": "nonpayable",
      "type": "function"
    },
    {
      "inputs": [],
      "name": "withdraw",
      "outputs": [],
      "stateMutability": "nonpayable",
      "type": "function"
    }
  ],
  "bytecode": "0x608060405260405180602001604052806000815250600890805190602001906200002b929190620002ef565b50662386f26fc100006009556064600a556005600b553480156200004e57600080fd5b5060405162003ee938038062003ee983398181016040528101906200007491906200053c565b6040518060400160405280600781526020017f46696e78746572000000000000000000000000000000000000000000000000008152506040518060400160405280600281526020017f46540000000000000000000000000000000000000000000000000000000000008152508160009080519060200190620000f8929190620002ef565b50806001908051906020019062000111929190620002ef565b50505062000134620001286200014c60201b60201c565b6200015460201b60201c565b62000145816200021a60201b60201c565b5062000675565b600033905090565b6000600660009054906101000a900473ffffffffffffffffffffffffffffffffffffffff16905081600660006101000a81548173ffffffffffffffffffffffffffffffffffffffff021916908373ffffffffffffffffffffffffffffffffffffffff1602179055508173ffffffffffffffffffffffffffffffffffffffff168173ffffffffffffffffffffffffffffffffffffffff167f8be0079c531659141344cd1fd0a4f28419497f9722a3daafe3b4186f6b6457e060405160405180910390a35050565b6200022a6200014c60201b60201c565b73ffffffffffffffffffffffffffffffffffffffff1662000250620002c560201b60201c565b73ffffffffffffffffffffffffffffffffffffffff1614620002a9576040517f08c379a0000000000000000000000000000000000000000000000000000000008152600401620002a090620005ee565b60405180910390fd5b8060089080519060200190620002c1929190620002ef565b5050565b6000600660009054906101000a900473ffffffffffffffffffffffffffffffffffffffff16905090565b828054620002fd906200063f565b90600052602060002090601f0160209004810192826200032157600085556200036d565b82601f106200033c57805160ff19168380011785556200036d565b828001600101855582156200036d579182015b828111156200036c5782518255916020019190600101906200034f565b5b5090506200037c919062000380565b5090565b5b808211156200039b57600081600090555060010162000381565b5090565b6000604051905090565b600080fd5b600080fd5b600080fd5b600080fd5b6000601f19601f8301169050919050565b7f4e487b7100000000000000000000000000000000000000000000000000000000600052604160045260246000fd5b6200040882620003bd565b810181811067ffffffffffffffff821117156200042a5762000429620003ce565b5b80604052505050565b60006200043f6200039f565b90506200044d8282620003fd565b919050565b600067ffffffffffffffff82111562000470576200046f620003ce565b5b6200047b82620003bd565b9050602081019050919050565b60005b83811015620004a85780820151818401526020810190506200048b565b83811115620004b8576000848401525b50505050565b6000620004d5620004cf8462000452565b62000433565b905082815260208101848484011115620004f457620004f3620003b8565b5b6200050184828562000488565b509392505050565b600082601f830112620005215762000520620003b3565b5b815162000533848260208601620004be565b91505092915050565b600060208284031215620005555762000554620003a9565b5b600082015167ffffffffffffffff811115620005765762000575620003ae565b5b620005848482850162000509565b91505092915050565b600082825260208201905092915050565b7f4f776e61626c653a2063616c6c6572206973206e6f7420746865206f776e6572600082015250565b6000620005d66020836200058d565b9150620005e3826200059e565b602082019050919050565b600060208201905081810360008301526200060981620005c7565b9050919050565b7f4e487b7100000000000000000000000000000000000000000000000000000000600052602260045260246000fd5b600060028204905060018216806200065857607f821691505b602082108114156200066f576200066e62000610565b5b50919050565b61386480620006856000396000f3fe6080604052600436106101855760003560e01c8063715018a6116100d1578063a22cb4651161008a578063d5abeb0111610064578063d5abeb0114610569578063d936547e14610594578063e985e9c5146105d1578063f2fde38b1461060e5761018c565b8063a22cb465146104da578063b88d4fde14610503578063c87b56dd1461052c5761018c565b8063715018a6146103fd5780637ec4a659146104145780638da5cb5b1461043d57806394354fd01461046857806395d89b4114610493578063a0712d68146104be5761018c565b806323b872dd1161013e578063438b630011610118578063438b63001461031b57806362b99ad4146103585780636352211e1461038357806370a08231146103c05761018c565b806323b872dd146102b25780633ccfd60b146102db57806342842e0e146102f25761018c565b806301ffc9a71461018e57806306fdde03146101cb578063081812fc146101f6578063095ea7b31461023357806313faede61461025c57806318160ddd146102875761018c565b3661018c57005b005b34801561019a57600080fd5b506101b560048036038101906101b091906122cf565b610637565b6040516101c29190612317565b60405180910390f35b3480156101d757600080fd5b506101e0610719565b6040516101ed91906123cb565b60405180910390f35b34801561020257600080fd5b5061021d60048036038101906102189190612423565b6107ab565b60405161022a9190612491565b60405180910390f35b34801561023f57600080fd5b5061025a600480360381019061025591906124d8565b610830565b005b34801561026857600080fd5b50610271610948565b60405161027e9190612527565b60405180910390f35b34801561029357600080fd5b5061029c61094e565b6040516102a99190612527565b60405180910390f35b3480156102be57600080fd5b506102d960048036038101906102d49190612542565b61095f565b005b3480156102e757600080fd5b506102f06109bf565b005b3480156102fe57600080fd5b5061031960048036038101906103149190612542565b610af1565b005b34801561032757600080fd5b50610342600480360381019061033d9190612595565b610b11565b60405161034f9190612680565b60405180910390f35b34801561036457600080fd5b5061036d610c1c565b60405161037a91906123cb565b60405180910390f35b34801561038f57600080fd5b506103aa60048036038101906103a59190612423565b610caa565b6040516103b79190612491565b60405180910390f35b3480156103cc57600080fd5b506103e760048036038101906103e29190612595565b610d5c565b6040516103f49190612527565b60405180910390f35b34801561040957600080fd5b50610412610e14565b005b34801561042057600080fd5b5061043b600480360381019061043691906127d7565b610e9c565b005b34801561044957600080fd5b50610452610f32565b60405161045f9190612491565b60405180910390f35b34801561047457600080fd5b5061047d610f5c565b60405161048a9190612527565b60405180910390f35b34801561049f57600080fd5b506104a8610f62565b6040516104b591906123cb565b60405180910390f35b6104d860048036038101906104d39190612423565b610ff4565b005b3480156104e657600080fd5b5061050160048036038101906104fc919061284c565b611191565b005b34801561050f57600080fd5b5061052a6004803603810190610525919061292d565b6111a7565b005b34801561053857600080fd5b50610553600480360381019061054e9190612423565b611209565b60405161056091906123cb565b60405180910390f35b34801561057557600080fd5b5061057e6112b0565b60405161058b9190612527565b60405180910390f35b3480156105a057600080fd5b506105bb60048036038101906105b69190612595565b6112b6565b6040516105c89190612317565b60405180910390f35b3480156105dd57600080fd5b506105f860048036038101906105f391906129b0565b6112d6565b6040516106059190612317565b60405180910390f35b34801561061a57600080fd5b5061063560048036038101906106309190612595565b61136a565b005b60007f80ac58cd000000000000000000000000000000000000000000000000000000007bffffffffffffffffffffffffffffffffffffffffffffffffffffffff1916827bffffffffffffffffffffffffffffffffffffffffffffffffffffffff1916148061070257507f5b5e139f000000000000000000000000000000000000000000000000000000007bffffffffffffffffffffffffffffffffffffffffffffffffffffffff1916827bffffffffffffffffffffffffffffffffffffffffffffffffffffffff1916145b80610712575061071182611462565b5b9050919050565b60606000805461072890612a1f565b80601f016020809104026020016040519081016040528092919081815260200182805461075490612a1f565b80156107a15780601f10610776576101008083540402835291602001916107a1565b820191906000526020600020905b81548152906001019060200180831161078457829003601f168201915b5050505050905090565b60006107b6826114cc565b6107f5576040517f08c379a00000000000000000000000000000000000000000000000000000000081526004016107ec90612ac3565b60405180910390fd5b6004600083815260200190815260200160002060009054906101000a900473ffffffffffffffffffffffffffffffffffffffff169050919050565b600061083b82610caa565b90508073ffffffffffffffffffffffffffffffffffffffff168373ffffffffffffffffffffffffffffffffffffffff1614156108ac576040517f08c379a00000000000000000000000000000000000000000000000000000000081526004016108a390612b55565b60405180910390fd5b8073ffffffffffffffffffffffffffffffffffffffff166108cb611538565b73ffffffffffffffffffffffffffffffffffffffff1614806108fa57506108f9816108f4611538565b6112d6565b5b610939576040517f08c379a000000000000000000000000000000000000000000000000000000000815260040161093090612be7565b60405180910390fd5b6109438383611540565b505050565b60095481565b600061095a60076115f9565b905090565b61097061096a611538565b82611607565b6109af576040517f08c379a00000000000000000000000000000000000000000000000000000000081526004016109a690612c79565b60405180910390fd5b6109ba8383836116e5565b505050565b6109c7611538565b73ffffffffffffffffffffffffffffffffffffffff166109e5610f32565b73ffffffffffffffffffffffffffffffffffffffff1614610a3b576040517f08c379a0000000000000000000000000000000000000000000000000000000008152600401610a3290612ce5565b60405180910390fd5b6000610a45610f32565b73ffffffffffffffffffffffffffffffffffffffff1647604051610a6890612d36565b60006040518083038185875af1925050503d8060008114610aa5576040519150601f19603f3d011682016040523d82523d6000602084013e610aaa565b606091505b5050905080610aee576040517f08c379a0000000000000000000000000000000000000000000000000000000008152600401610ae590612d97565b60405180910390fd5b50565b610b0c838383604051806020016040528060008152506111a7565b505050565b60606000610b1e83610d5c565b905060008167ffffffffffffffff811115610b3c57610b3b6126ac565b5b604051908082528060200260200182016040528015610b6a5781602001602082028036833780820191505090505b50905060006001905060005b8381108015610b875750600a548211155b15610c10576000610b9783610caa565b90508673ffffffffffffffffffffffffffffffffffffffff168173ffffffffffffffffffffffffffffffffffffffff161415610bfc5782848381518110610be157610be0612db7565b5b6020026020010181815250508180610bf890612e15565b9250505b8280610c0790612e15565b93505050610b76565b82945050505050919050565b60088054610c2990612a1f565b80601f0160208091040260200160405190810160405280929190818152602001828054610c5590612a1f565b8015610ca25780601f10610c7757610100808354040283529160200191610ca2565b820191906000526020600020905b815481529060010190602001808311610c8557829003601f168201915b505050505081565b6000806002600084815260200190815260200160002060009054906101000a900473ffffffffffffffffffffffffffffffffffffffff169050600073ffffffffffffffffffffffffffffffffffffffff168173ffffffffffffffffffffffffffffffffffffffff161415610d53576040517f08c379a0000000000000000000000000000000000000000000000000000000008152600401610d4a90612ed0565b60405180910390fd5b80915050919050565b60008073ffffffffffffffffffffffffffffffffffffffff168273ffffffffffffffffffffffffffffffffffffffff161415610dcd576040517f08c379a0000000000000000000000000000000000000000000000000000000008152600401610dc490612f62565b60405180910390fd5b600360008373ffffffffffffffffffffffffffffffffffffffff1673ffffffffffffffffffffffffffffffffffffffff168152602001908152602001600020549050919050565b610e1c611538565b73ffffffffffffffffffffffffffffffffffffffff16610e3a610f32565b73ffffffffffffffffffffffffffffffffffffffff1614610e90576040517f08c379a0000000000000000000000000000000000000000000000000000000008152600401610e8790612ce5565b60405180910390fd5b610e9a600061194c565b565b610ea4611538565b73ffffffffffffffffffffffffffffffffffffffff16610ec2610f32565b73ffffffffffffffffffffffffffffffffffffffff1614610f18576040517f08c379a0000000000000000000000000000000000000000000000000000000008152600401610f0f90612ce5565b60405180910390fd5b8060089080519060200190610f2e9291906121c0565b5050565b6000600660009054906101000a900473ffffffffffffffffffffffffffffffffffffffff16905090565b600b5481565b606060018054610f7190612a1f565b80601f0160208091040260200160405190810160405280929190818152602001828054610f9d90612a1f565b8015610fea5780601f10610fbf57610100808354040283529160200191610fea565b820191906000526020600020905b815481529060010190602001808311610fcd57829003601f168201915b5050505050905090565b806000811180156110075750600b548111155b611046576040517f08c379a000000000000000000000000000000000000000000000000000000000815260040161103d90612fce565b60405180910390fd5b600a548161105460076115f9565b61105e9190612fee565b111561109f576040517f08c379a000000000000000000000000000000000000000000000000000000000815260040161109690613090565b60405180910390fd5b6110a7610f32565b73ffffffffffffffffffffffffffffffffffffffff163373ffffffffffffffffffffffffffffffffffffffff16146111835760011515600c60003373ffffffffffffffffffffffffffffffffffffffff1673ffffffffffffffffffffffffffffffffffffffff16815260200190815260200160002060009054906101000a900460ff16151514611182578160095461113f91906130b0565b341015611181576040517f08c379a000000000000000000000000000000000000000000000000000000000815260040161117890613156565b60405180910390fd5b5b5b61118d3383611a12565b5050565b6111a361119c611538565b8383611a52565b5050565b6111b86111b2611538565b83611607565b6111f7576040517f08c379a00000000000000000000000000000000000000000000000000000000081526004016111ee90612c79565b60405180910390fd5b61120384848484611bbf565b50505050565b6060611214826114cc565b611253576040517f08c379a000000000000000000000000000000000000000000000000000000000815260040161124a906131e8565b60405180910390fd5b600061125d611c1b565b9050600081511161127d57604051806020016040528060008152506112a8565b8061128784611c32565b604051602001611298929190613244565b6040516020818303038152906040525b915050919050565b600a5481565b600c6020528060005260406000206000915054906101000a900460ff1681565b6000600560008473ffffffffffffffffffffffffffffffffffffffff1673ffffffffffffffffffffffffffffffffffffffff16815260200190815260200160002060008373ffffffffffffffffffffffffffffffffffffffff1673ffffffffffffffffffffffffffffffffffffffff16815260200190815260200160002060009054906101000a900460ff16905092915050565b611372611538565b73ffffffffffffffffffffffffffffffffffffffff16611390610f32565b73ffffffffffffffffffffffffffffffffffffffff16146113e6576040517f08c379a00000000000000000000000000000000000000000000000000000000081526004016113dd90612ce5565b60405180910390fd5b600073ffffffffffffffffffffffffffffffffffffffff168173ffffffffffffffffffffffffffffffffffffffff161415611456576040517f08c379a000000000000000000000000000000000000000000000000000000000815260040161144d906132da565b60405180910390fd5b61145f8161194c565b50565b60007f01ffc9a7000000000000000000000000000000000000000000000000000000007bffffffffffffffffffffffffffffffffffffffffffffffffffffffff1916827bffffffffffffffffffffffffffffffffffffffffffffffffffffffff1916149050919050565b60008073ffffffffffffffffffffffffffffffffffffffff166002600084815260200190815260200160002060009054906101000a900473ffffffffffffffffffffffffffffffffffffffff1673ffffffffffffffffffffffffffffffffffffffff1614159050919050565b600033905090565b816004600083815260200190815260200160002060006101000a81548173ffffffffffffffffffffffffffffffffffffffff021916908373ffffffffffffffffffffffffffffffffffffffff160217905550808273ffffffffffffffffffffffffffffffffffffffff166115b383610caa565b73ffffffffffffffffffffffffffffffffffffffff167f8c5be1e5ebec7d5bd14f71427d1e84f3dd0314c0f7b2291e5b200ac8c7c3b92560405160405180910390a45050565b600081600001549050919050565b6000611612826114cc565b611651576040517f08c379a00000000000000000000000000000000000000000000000000000000081526004016116489061336c565b60405180910390fd5b600061165c83610caa565b90508073ffffffffffffffffffffffffffffffffffffffff168473ffffffffffffffffffffffffffffffffffffffff1614806116cb57508373ffffffffffffffffffffffffffffffffffffffff166116b3846107ab565b73ffffffffffffffffffffffffffffffffffffffff16145b806116dc57506116db81856112d6565b5b91505092915050565b8273ffffffffffffffffffffffffffffffffffffffff1661170582610caa565b73ffffffffffffffffffffffffffffffffffffffff161461175b576040517f08c379a0000000000000000000000000000000000000000000000000000000008152600401611752906133fe565b60405180910390fd5b600073ffffffffffffffffffffffffffffffffffffffff168273ffffffffffffffffffffffffffffffffffffffff1614156117cb576040517f08c379a00000000000000000000000000000000000000000000000000000000081526004016117c290613490565b60405180910390fd5b6117d6838383611d93565b6117e1600082611540565b6001600360008573ffffffffffffffffffffffffffffffffffffffff1673ffffffffffffffffffffffffffffffffffffffff168152602001908152602001600020600082825461183191906134b0565b925050819055506001600360008473ffffffffffffffffffffffffffffffffffffffff1673ffffffffffffffffffffffffffffffffffffffff16815260200190815260200160002060008282546118889190612fee565b92505081905550816002600083815260200190815260200160002060006101000a81548173ffffffffffffffffffffffffffffffffffffffff021916908373ffffffffffffffffffffffffffffffffffffffff160217905550808273ffffffffffffffffffffffffffffffffffffffff168473ffffffffffffffffffffffffffffffffffffffff167fddf252ad1be2c89b69c2b068fc378daa952ba7f163c4a11628f55a4df523b3ef60405160405180910390a4611947838383611d98565b505050565b6000600660009054906101000a900473ffffffffffffffffffffffffffffffffffffffff16905081600660006101000a81548173ffffffffffffffffffffffffffffffffffffffff021916908373ffffffffffffffffffffffffffffffffffffffff1602179055508173ffffffffffffffffffffffffffffffffffffffff168173ffffffffffffffffffffffffffffffffffffffff167f8be0079c531659141344cd1fd0a4f28419497f9722a3daafe3b4186f6b6457e060405160405180910390a35050565b60005b81811015611a4d57611a276007611d9d565b611a3a83611a3560076115f9565b611db3565b8080611a4590612e15565b915050611a15565b505050565b8173ffffffffffffffffffffffffffffffffffffffff168373ffffffffffffffffffffffffffffffffffffffff161415611ac1576040517f08c379a0000000000000000000000000000000000000000000000000000000008152600401611ab890613530565b60405180910390fd5b80600560008573ffffffffffffffffffffffffffffffffffffffff1673ffffffffffffffffffffffffffffffffffffffff16815260200190815260200160002060008473ffffffffffffffffffffffffffffffffffffffff1673ffffffffffffffffffffffffffffffffffffffff16815260200190815260200160002060006101000a81548160ff0219169083151502179055508173ffffffffffffffffffffffffffffffffffffffff168373ffffffffffffffffffffffffffffffffffffffff167f17307eab39ab6107e8899845ad3d59bd9653f200f220920489ca2b5937696c3183604051611bb29190612317565b60405180910390a3505050565b611bca8484846116e5565b611bd684848484611dd1565b611c15576040517f08c379a0000000000000000000000000000000000000000000000000000000008152600401611c0c906135c2565b60405180910390fd5b50505050565b606060405180602001604052806000815250905090565b60606000821415611c7a576040518060400160405280600181526020017f30000000000000000000000000000000000000000000000000000000000000008152509050611d8e565b600082905060005b60008214611cac578080611c9590612e15565b915050600a82611ca59190613611565b9150611c82565b60008167ffffffffffffffff811115611cc857611cc76126ac565b5b6040519080825280601f01601f191660200182016040528015611cfa5781602001600182028036833780820191505090505b5090505b60008514611d8757600182611d1391906134b0565b9150600a85611d229190613642565b6030611d2e9190612fee565b60f81b818381518110611d4457611d43612db7565b5b60200101907effffffffffffffffffffffffffffffffffffffffffffffffffffffffffffff1916908160001a905350600a85611d809190613611565b9450611cfe565b8093505050505b919050565b505050565b505050565b6001816000016000828254019250508190555050565b611dcd828260405180602001604052806000815250611f68565b5050565b6000611df28473ffffffffffffffffffffffffffffffffffffffff16611fc3565b15611f5b578373ffffffffffffffffffffffffffffffffffffffff1663150b7a02611e1b611538565b8786866040518563ffffffff1660e01b8152600401611e3d94939291906136c8565b602060405180830381600087803b158015611e5757600080fd5b505af1925050508015611e8857506040513d601f19601f82011682018060405250810190611e859190613729565b60015b611f0b573d8060008114611eb8576040519150601f19603f3d011682016040523d82523d6000602084013e611ebd565b606091505b50600081511415611f03576040517f08c379a0000000000000000000000000000000000000000000000000000000008152600401611efa906135c2565b60405180910390fd5b805181602001fd5b63150b7a0260e01b7bffffffffffffffffffffffffffffffffffffffffffffffffffffffff1916817bffffffffffffffffffffffffffffffffffffffffffffffffffffffff191614915050611f60565b600190505b949350505050565b611f728383611fe6565b611f7f6000848484611dd1565b611fbe576040517f08c379a0000000000000000000000000000000000000000000000000000000008152600401611fb5906135c2565b60405180910390fd5b505050565b6000808273ffffffffffffffffffffffffffffffffffffffff163b119050919050565b600073ffffffffffffffffffffffffffffffffffffffff168273ffffffffffffffffffffffffffffffffffffffff161415612056576040517f08c379a000000000000000000000000000000000000000000000000000000000815260040161204d906137a2565b60405180910390fd5b61205f816114cc565b1561209f576040517f08c379a00000000000000000000000000000000000000000000000000000000081526004016120969061380e565b60405180910390fd5b6120ab60008383611d93565b6001600360008473ffffffffffffffffffffffffffffffffffffffff1673ffffffffffffffffffffffffffffffffffffffff16815260200190815260200160002060008282546120fb9190612fee565b92505081905550816002600083815260200190815260200160002060006101000a81548173ffffffffffffffffffffffffffffffffffffffff021916908373ffffffffffffffffffffffffffffffffffffffff160217905550808273ffffffffffffffffffffffffffffffffffffffff16600073ffffffffffffffffffffffffffffffffffffffff167fddf252ad1be2c89b69c2b068fc378daa952ba7f163c4a11628f55a4df523b3ef60405160405180910390a46121bc60008383611d98565b5050565b8280546121cc90612a1f565b90600052602060002090601f0160209004810192826121ee5760008555612235565b82601f1061220757805160ff1916838001178555612235565b82800160010185558215612235579182015b82811115612234578251825591602001919060010190612219565b5b5090506122429190612246565b5090565b5b8082111561225f576000816000905550600101612247565b5090565b6000604051905090565b600080fd5b600080fd5b60007fffffffff0000000000000000000000000000000000000000000000000000000082169050919050565b6122ac81612277565b81146122b757600080fd5b50565b6000813590506122c9816122a3565b92915050565b6000602082840312156122e5576122e461226d565b5b60006122f3848285016122ba565b91505092915050565b60008115159050919050565b612311816122fc565b82525050565b600060208201905061232c6000830184612308565b92915050565b600081519050919050565b600082825260208201905092915050565b60005b8381101561236c578082015181840152602081019050612351565b8381111561237b576000848401525b50505050565b6000601f19601f8301169050919050565b600061239d82612332565b6123a7818561233d565b93506123b781856020860161234e565b6123c081612381565b840191505092915050565b600060208201905081810360008301526123e58184612392565b905092915050565b6000819050919050565b612400816123ed565b811461240b57600080fd5b50565b60008135905061241d816123f7565b92915050565b6000602082840312156124395761243861226d565b5b60006124478482850161240e565b91505092915050565b600073ffffffffffffffffffffffffffffffffffffffff82169050919050565b600061247b82612450565b9050919050565b61248b81612470565b82525050565b60006020820190506124a66000830184612482565b92915050565b6124b581612470565b81146124c057600080fd5b50565b6000813590506124d2816124ac565b92915050565b600080604083850312156124ef576124ee61226d565b5b60006124fd858286016124c3565b925050602061250e8582860161240e565b9150509250929050565b612521816123ed565b82525050565b600060208201905061253c6000830184612518565b92915050565b60008060006060848603121561255b5761255a61226d565b5b6000612569868287016124c3565b935050602061257a868287016124c3565b925050604061258b8682870161240e565b9150509250925092565b6000602082840312156125ab576125aa61226d565b5b60006125b9848285016124c3565b91505092915050565b600081519050919050565b600082825260208201905092915050565b6000819050602082019050919050565b6125f7816123ed565b82525050565b600061260983836125ee565b60208301905092915050565b6000602082019050919050565b600061262d826125c2565b61263781856125cd565b9350612642836125de565b8060005b8381101561267357815161265a88826125fd565b975061266583612615565b925050600181019050612646565b5085935050505092915050565b6000602082019050818103600083015261269a8184612622565b905092915050565b600080fd5b600080fd5b7f4e487b7100000000000000000000000000000000000000000000000000000000600052604160045260246000fd5b6126e482612381565b810181811067ffffffffffffffff82111715612703576127026126ac565b5b80604052505050565b6000612716612263565b905061272282826126db565b919050565b600067ffffffffffffffff821115612742576127416126ac565b5b61274b82612381565b9050602081019050919050565b82818337600083830152505050565b600061277a61277584612727565b61270c565b905082815260208101848484011115612796576127956126a7565b5b6127a1848285612758565b509392505050565b600082601f8301126127be576127bd6126a2565b5b81356127ce848260208601612767565b91505092915050565b6000602082840312156127ed576127ec61226d565b5b600082013567ffffffffffffffff81111561280b5761280a612272565b5b612817848285016127a9565b91505092915050565b612829816122fc565b811461283457600080fd5b50565b60008135905061284681612820565b92915050565b600080604083850312156128635761286261226d565b5b6000612871858286016124c3565b925050602061288285828601612837565b9150509250929050565b600067ffffffffffffffff8211156128a7576128a66126ac565b5b6128b082612381565b9050602081019050919050565b60006128d06128cb8461288c565b61270c565b9050828152602081018484840111156128ec576128eb6126a7565b5b6128f7848285612758565b509392505050565b600082601f830112612914576129136126a2565b5b81356129248482602086016128bd565b91505092915050565b600080600080608085870312156129475761294661226d565b5b6000612955878288016124c3565b9450506020612966878288016124c3565b93505060406129778782880161240e565b925050606085013567ffffffffffffffff81111561299857612997612272565b5b6129a4878288016128ff565b91505092959194509250565b600080604083850312156129c7576129c661226d565b5b60006129d5858286016124c3565b92505060206129e6858286016124c3565b9150509250929050565b7f4e487b7100000000000000000000000000000000000000000000000000000000600052602260045260246000fd5b60006002820490506001821680612a3757607f821691505b60208210811415612a4b57612a4a6129f0565b5b50919050565b7f4552433732313a20617070726f76656420717565727920666f72206e6f6e657860008201527f697374656e7420746f6b656e0000000000000000000000000000000000000000602082015250565b6000612aad602c8361233d565b9150612ab882612a51565b604082019050919050565b60006020820190508181036000830152612adc81612aa0565b9050919050565b7f4552433732313a20617070726f76616c20746f2063757272656e74206f776e6560008201527f7200000000000000000000000000000000000000000000000000000000000000602082015250565b6000612b3f60218361233d565b9150612b4a82612ae3565b604082019050919050565b60006020820190508181036000830152612b6e81612b32565b9050919050565b7f4552433732313a20617070726f76652063616c6c6572206973206e6f74206f7760008201527f6e6572206e6f7220617070726f76656420666f7220616c6c0000000000000000602082015250565b6000612bd160388361233d565b9150612bdc82612b75565b604082019050919050565b60006020820190508181036000830152612c0081612bc4565b9050919050565b7f4552433732313a207472616e736665722063616c6c6572206973206e6f74206f60008201527f776e6572206e6f7220617070726f766564000000000000000000000000000000602082015250565b6000612c6360318361233d565b9150612c6e82612c07565b604082019050919050565b60006020820190508181036000830152612c9281612c56565b9050919050565b7f4f776e61626c653a2063616c6c6572206973206e6f7420746865206f776e6572600082015250565b6000612ccf60208361233d565b9150612cda82612c99565b602082019050919050565b60006020820190508181036000830152612cfe81612cc2565b9050919050565b600081905092915050565b50565b6000612d20600083612d05565b9150612d2b82612d10565b600082019050919050565b6000612d4182612d13565b9150819050919050565b7f4661696c656420746f20776974686472617720616d6f756e7421000000000000600082015250565b6000612d81601a8361233d565b9150612d8c82612d4b565b602082019050919050565b60006020820190508181036000830152612db081612d74565b9050919050565b7f4e487b7100000000000000000000000000000000000000000000000000000000600052603260045260246000fd5b7f4e487b7100000000000000000000000000000000000000000000000000000000600052601160045260246000fd5b6000612e20826123ed565b91507fffffffffffffffffffffffffffffffffffffffffffffffffffffffffffffffff821415612e5357612e52612de6565b5b600182019050919050565b7f4552433732313a206f776e657220717565727920666f72206e6f6e657869737460008201527f656e7420746f6b656e0000000000000000000000000000000000000000000000602082015250565b6000612eba60298361233d565b9150612ec582612e5e565b604082019050919050565b60006020820190508181036000830152612ee981612ead565b9050919050565b7f4552433732313a2062616c616e636520717565727920666f7220746865207a6560008201527f726f206164647265737300000000000000000000000000000000000000000000602082015250565b6000612f4c602a8361233d565b9150612f5782612ef0565b604082019050919050565b60006020820190508181036000830152612f7b81612f3f565b9050919050565b7f496e76616c6964206d696e7420616d6f756e7421000000000000000000000000600082015250565b6000612fb860148361233d565b9150612fc382612f82565b602082019050919050565b60006020820190508181036000830152612fe781612fab565b9050919050565b6000612ff9826123ed565b9150613004836123ed565b9250827fffffffffffffffffffffffffffffffffffffffffffffffffffffffffffffffff0382111561303957613038612de6565b5b828201905092915050565b7f4d617820737570706c7920657863656564656421000000000000000000000000600082015250565b600061307a60148361233d565b915061308582613044565b602082019050919050565b600060208201905081810360008301526130a98161306d565b9050919050565b60006130bb826123ed565b91506130c6836123ed565b9250817fffffffffffffffffffffffffffffffffffffffffffffffffffffffffffffffff04831182151516156130ff576130fe612de6565b5b828202905092915050565b7f496e73756666696369656e742066756e64732100000000000000000000000000600082015250565b600061314060138361233d565b915061314b8261310a565b602082019050919050565b6000602082019050818103600083015261316f81613133565b9050919050565b7f4552433732314d657461646174613a2055524920717565727920666f72206e6f60008201527f6e6578697374656e7420746f6b656e0000000000000000000000000000000000602082015250565b60006131d2602f8361233d565b91506131dd82613176565b604082019050919050565b60006020820190508181036000830152613201816131c5565b9050919050565b600081905092915050565b600061321e82612332565b6132288185613208565b935061323881856020860161234e565b80840191505092915050565b60006132508285613213565b915061325c8284613213565b91508190509392505050565b7f4f776e61626c653a206e6577206f776e657220697320746865207a65726f206160008201527f6464726573730000000000000000000000000000000000000000000000000000602082015250565b60006132c460268361233d565b91506132cf82613268565b604082019050919050565b600060208201905081810360008301526132f3816132b7565b9050919050565b7f4552433732313a206f70657261746f7220717565727920666f72206e6f6e657860008201527f697374656e7420746f6b656e0000000000000000000000000000000000000000602082015250565b6000613356602c8361233d565b9150613361826132fa565b604082019050919050565b6000602082019050818103600083015261338581613349565b9050919050565b7f4552433732313a207472616e736665722066726f6d20696e636f72726563742060008201527f6f776e6572000000000000000000000000000000000000000000000000000000602082015250565b60006133e860258361233d565b91506133f38261338c565b604082019050919050565b60006020820190508181036000830152613417816133db565b9050919050565b7f4552433732313a207472616e7366657220746f20746865207a65726f2061646460008201527f7265737300000000000000000000000000000000000000000000000000000000602082015250565b600061347a60248361233d565b91506134858261341e565b604082019050919050565b600060208201905081810360008301526134a98161346d565b9050919050565b60006134bb826123ed565b91506134c6836123ed565b9250828210156134d9576134d8612de6565b5b828203905092915050565b7f4552433732313a20617070726f766520746f2063616c6c657200000000000000600082015250565b600061351a60198361233d565b9150613525826134e4565b602082019050919050565b600060208201905081810360008301526135498161350d565b9050919050565b7f4552433732313a207472616e7366657220746f206e6f6e20455243373231526560008201527f63656976657220696d706c656d656e7465720000000000000000000000000000602082015250565b60006135ac60328361233d565b91506135b782613550565b604082019050919050565b600060208201905081810360008301526135db8161359f565b9050919050565b7f4e487b7100000000000000000000000000000000000000000000000000000000600052601260045260246000fd5b600061361c826123ed565b9150613627836123ed565b925082613637576136366135e2565b5b828204905092915050565b600061364d826123ed565b9150613658836123ed565b925082613668576136676135e2565b5b828206905092915050565b600081519050919050565b600082825260208201905092915050565b600061369a82613673565b6136a4818561367e565b93506136b481856020860161234e565b6136bd81612381565b840191505092915050565b60006080820190506136dd6000830187612482565b6136ea6020830186612482565b6136f76040830185612518565b8181036060830152613709818461368f565b905095945050505050565b600081519050613723816122a3565b92915050565b60006020828403121561373f5761373e61226d565b5b600061374d84828501613714565b91505092915050565b7f4552433732313a206d696e7420746f20746865207a65726f2061646472657373600082015250565b600061378c60208361233d565b915061379782613756565b602082019050919050565b600060208201905081810360008301526137bb8161377f565b9050919050565b7f4552433732313a20746f6b656e20616c7265616479206d696e74656400000000600082015250565b60006137f8601c8361233d565b9150613803826137c2565b602082019050919050565b60006020820190508181036000830152613827816137eb565b905091905056fea264697066735822122098f115bd81404ae37861263a962b10d89ee6a980fa2d751fbfc870bb601450ee64736f6c63430008090033",
  "immutableReferences": {},
  "source": "//SPDX-License-Identifier: MIT\n/// @title NFT minting for artists ERC721 compliant\n/// @author Yogesh K\n/// @notice Use this contract for minting of art.\n/// Token IDs will start from 1 and upto 100\npragma solidity ^0.8.9;\n\nimport \"@openzeppelin/contracts/token/ERC721/ERC721.sol\";\nimport \"@openzeppelin/contracts/utils/Counters.sol\";\nimport \"@openzeppelin/contracts/access/Ownable.sol\";\n\ncontract FinxterNFT is ERC721, Ownable {\n    // =============================================================================\n    //              Contract variables start here\n    // =============================================================================\n    using Strings for uint256; // uint256 variable can call up functions in the Strings library.e.g. value.toString()\n    using Counters for Counters.Counter;\n\n    Counters.Counter private _supply;\n\n    string public uriPrefix = \"\";\n    uint256 public cost = 0.01 ether; // cost of minting\n    uint256 public maxSupply = 100; // 100 NFT\n    uint256 public maxMintAmountPerTx = 5; // max allowed to mint per transaction\n    mapping(address => bool) public whitelisted; // if you are whitelisted, you dont have to pay\n\n    constructor(string memory _initBaseURI) ERC721(\"Finxter\", \"FT\") {\n        setUriPrefix(_initBaseURI);\n    }\n\n    modifier mintCompliance(uint256 _mintAmount) {\n        require(\n            _mintAmount > 0 && _mintAmount <= maxMintAmountPerTx,\n            \"Invalid mint amount!\"\n        );\n        require(\n            _supply.current() + _mintAmount <= maxSupply,\n            \"Max supply exceeded!\"\n        );\n        _; // resume with function execution\n    }\n\n    function totalSupply() public view returns (uint256) {\n        return _supply.current();\n    }\n\n    function mint(uint256 _mintAmount)\n        public\n        payable\n        mintCompliance(_mintAmount)\n    {\n        if (msg.sender != owner()) {\n            if (whitelisted[msg.sender] != true) {\n                //general public\n                require(msg.value >= cost * _mintAmount, \"Insufficient funds!\");\n            }\n        }\n        _mintLoop(msg.sender, _mintAmount);\n    }\n\n    function walletOfOwner(address _owner)\n        public\n        view\n        returns (uint256[] memory)\n    {\n        uint256 ownerTokenCount = balanceOf(_owner);\n        uint256[] memory ownedTokenIds = new uint256[](ownerTokenCount);\n        uint256 currentTokenId = 1;\n        uint256 ownedTokenIndex = 0;\n\n        while (\n            ownedTokenIndex < ownerTokenCount && currentTokenId <= maxSupply\n        ) {\n            address currentTokenOwner = ownerOf(currentTokenId);\n\n            if (currentTokenOwner == _owner) {\n                ownedTokenIds[ownedTokenIndex] = currentTokenId;\n                ownedTokenIndex++;\n            }\n\n            currentTokenId++;\n        }\n\n        return ownedTokenIds;\n    }\n\n    function setUriPrefix(string memory _uriPrefix) public onlyOwner {\n        uriPrefix = _uriPrefix;\n    }\n\n    function withdraw() public onlyOwner {\n        (bool os, ) = payable(owner()).call{value: address(this).balance}(\"\");\n        require(os, \"Failed to withdraw amount!\");\n    }\n\n    function _mintLoop(address _receiver, uint256 _mintAmount) internal {\n        for (uint256 i = 0; i < _mintAmount; i++) {\n            _supply.increment();\n            _safeMint(_receiver, _supply.current());\n        }\n    }\n\n    // Function to receive Ether. msg.data must be empty\n    receive() external payable {}\n\n    // Fallback function is called when msg.data is not empty\n    fallback() external payable {}\n}\n",
  "sourcePath": "/home/yogi/MEGAsync Downloads/EatTheBlocks-Dapp30/Blockchain/dapps/nft_dao/contracts/FinxterNFT.sol",
  "compiler": {
    "name": "solc",
    "version": "0.8.9+commit.e5eed63a.Emscripten.clang"
  },
  "schemaVersion": "3.4.1",
  "updatedAt": "2022-04-29T15:41:09.566Z",
  "networkType": "ethereum",
  "devdoc": {
    "kind": "dev",
    "methods": {
      "approve(address,uint256)": {
        "details": "See {IERC721-approve}."
      },
      "balanceOf(address)": {
        "details": "See {IERC721-balanceOf}."
      },
      "getApproved(uint256)": {
        "details": "See {IERC721-getApproved}."
      },
      "isApprovedForAll(address,address)": {
        "details": "See {IERC721-isApprovedForAll}."
      },
      "name()": {
        "details": "See {IERC721Metadata-name}."
      },
      "owner()": {
        "details": "Returns the address of the current owner."
      },
      "ownerOf(uint256)": {
        "details": "See {IERC721-ownerOf}."
      },
      "renounceOwnership()": {
        "details": "Leaves the contract without owner. It will not be possible to call `onlyOwner` functions anymore. Can only be called by the current owner. NOTE: Renouncing ownership will leave the contract without an owner, thereby removing any functionality that is only available to the owner."
      },
      "safeTransferFrom(address,address,uint256)": {
        "details": "See {IERC721-safeTransferFrom}."
      },
      "safeTransferFrom(address,address,uint256,bytes)": {
        "details": "See {IERC721-safeTransferFrom}."
      },
      "setApprovalForAll(address,bool)": {
        "details": "See {IERC721-setApprovalForAll}."
      },
      "supportsInterface(bytes4)": {
        "details": "See {IERC165-supportsInterface}."
      },
      "symbol()": {
        "details": "See {IERC721Metadata-symbol}."
      },
      "tokenURI(uint256)": {
        "details": "See {IERC721Metadata-tokenURI}."
      },
      "transferFrom(address,address,uint256)": {
        "details": "See {IERC721-transferFrom}."
      },
      "transferOwnership(address)": {
        "details": "Transfers ownership of the contract to a new account (`newOwner`). Can only be called by the current owner."
      }
    },
    "version": 1
  },
  "userdoc": {
    "kind": "user",
    "methods": {},
    "version": 1
  }
}