{
  "contractName": "PseudoNFTMarketplace",
  "abi": [
    {
      "inputs": [
        {
          "internalType": "uint256",
          "name": "",
          "type": "uint256"
        }
      ],
      "name": "tokens",
      "outputs": [
        {
          "internalType": "address",
          "name": "",
          "type": "address"
        }
      ],
      "stateMutability": "view",
      "type": "function",
      "constant": true
    },
    {
      "inputs": [
        {
          "internalType": "uint256",
          "name": "_tokenId",
          "type": "uint256"
        }
      ],
      "name": "buy",
      "outputs": [],
      "stateMutability": "payable",
      "type": "function",
      "payable": true
    },
    {
      "inputs": [],
      "name": "getPrice",
      "outputs": [
        {
          "internalType": "uint256",
          "name": "",
          "type": "uint256"
        }
      ],
      "stateMutability": "view",
      "type": "function",
      "constant": true
    },
    {
      "inputs": [
        {
          "internalType": "uint256",
          "name": "_tokenId",
          "type": "uint256"
        }
      ],
      "name": "available",
      "outputs": [
        {
          "internalType": "bool",
          "name": "",
          "type": "bool"
        }
      ],
      "stateMutability": "view",
      "type": "function",
      "constant": true
    }
  ],
  "bytecode": "0x608060405267016345785d8a000060015534801561001c57600080fd5b5061053f8061002c6000396000f3fe60806040526004361061003f5760003560e01c80634f64b2be1461004457806396e494e81461008157806398d5fdca146100be578063d96a094a146100e9575b600080fd5b34801561005057600080fd5b5061006b60048036038101906100669190610337565b610105565b60405161007891906103a5565b60405180910390f35b34801561008d57600080fd5b506100a860048036038101906100a39190610337565b610138565b6040516100b591906103db565b60405180910390f35b3480156100ca57600080fd5b506100d36101b3565b6040516100e09190610405565b60405180910390f35b61010360048036038101906100fe9190610337565b6101bd565b005b60006020528060005260406000206000915054906101000a900473ffffffffffffffffffffffffffffffffffffffff1681565b60008073ffffffffffffffffffffffffffffffffffffffff1660008084815260200190815260200160002060009054906101000a900473ffffffffffffffffffffffffffffffffffffffff1673ffffffffffffffffffffffffffffffffffffffff1614156101a957600190506101ae565b600090505b919050565b6000600154905090565b6001543414610201576040517f08c379a00000000000000000000000000000000000000000000000000000000081526004016101f89061047d565b60405180910390fd5b600073ffffffffffffffffffffffffffffffffffffffff1660008083815260200190815260200160002060009054906101000a900473ffffffffffffffffffffffffffffffffffffffff1673ffffffffffffffffffffffffffffffffffffffff1614156102be573360008083815260200190815260200160002060006101000a81548173ffffffffffffffffffffffffffffffffffffffff021916908373ffffffffffffffffffffffffffffffffffffffff1602179055506102f9565b6040517f08c379a00000000000000000000000000000000000000000000000000000000081526004016102f0906104e9565b60405180910390fd5b50565b600080fd5b6000819050919050565b61031481610301565b811461031f57600080fd5b50565b6000813590506103318161030b565b92915050565b60006020828403121561034d5761034c6102fc565b5b600061035b84828501610322565b91505092915050565b600073ffffffffffffffffffffffffffffffffffffffff82169050919050565b600061038f82610364565b9050919050565b61039f81610384565b82525050565b60006020820190506103ba6000830184610396565b92915050565b60008115159050919050565b6103d5816103c0565b82525050565b60006020820190506103f060008301846103cc565b92915050565b6103ff81610301565b82525050565b600060208201905061041a60008301846103f6565b92915050565b600082825260208201905092915050565b7f54686973204e465420636f73747320302e312065746865720000000000000000600082015250565b6000610467601883610420565b915061047282610431565b602082019050919050565b600060208201905081810360008301526104968161045a565b9050919050565b7f546f6b656e20496420616c726561647920626f75676874000000000000000000600082015250565b60006104d3601783610420565b91506104de8261049d565b602082019050919050565b60006020820190508181036000830152610502816104c6565b905091905056fea264697066735822122067c31d22a5f875d7830a68ac9ecf0721982dc08bd33435171d981328bb613c0a64736f6c63430008090033",
  "immutableReferences": {},
  "source": "// SPDX-License-Identifier: MIT\n/// @title NFT Fake Market place\n/// @author Yogesh K\n/// @notice Use this contract for buy art\n\npragma solidity ^0.8.9;\n\ncontract PseudoNFTMarketplace {\n    /// @dev Maintain a mapping of Fake TokenID to Owner addresses\n    mapping(uint256 => address) public tokens;\n    /// @dev Set the purchase price for each Fake NFT\n    uint256 nftPrice = 0.1 ether;\n\n    /// @dev buy() accepts ETH and marks the owner of the given tokenId as the caller address\n    /// @param _tokenId - the fake NFT token Id to purchase\n    function buy(uint256 _tokenId) external payable {\n        require(msg.value == nftPrice, \"This NFT costs 0.1 ether\");\n        if (tokens[_tokenId] == address(0)) {\n            tokens[_tokenId] = msg.sender;\n        } else {\n            revert(\"Token Id already bought\");\n        }\n    }\n\n    /// @dev getPrice() returns the price of one NFT\n    function getPrice() external view returns (uint256) {\n        return nftPrice;\n    }\n\n    /// @dev available() checks whether the given tokenId has already been sold or not\n    /// @param _tokenId - the tokenId to check for\n    function available(uint256 _tokenId) external view returns (bool) {\n        // address(0) = 0x0000000000000000000000000000000000000000\n        // This is the default value for addresses in Solidity\n        if (tokens[_tokenId] == address(0)) {\n            return true;\n        }\n        return false;\n    }\n}\n",
  "sourcePath": "/home/yogi/MEGAsync Downloads/EatTheBlocks-Dapp30/Blockchain/dapps/nft_dao/contracts/PseudoNFTMarket.sol",
  "compiler": {
    "name": "solc",
    "version": "0.8.9+commit.e5eed63a.Emscripten.clang"
  },
  "schemaVersion": "3.4.1",
  "updatedAt": "2022-04-29T15:41:09.586Z",
  "networkType": "ethereum",
  "devdoc": {
    "kind": "dev",
    "methods": {
      "available(uint256)": {
        "details": "available() checks whether the given tokenId has already been sold or not",
        "params": {
          "_tokenId": "- the tokenId to check for"
        }
      },
      "buy(uint256)": {
        "details": "buy() accepts ETH and marks the owner of the given tokenId as the caller address",
        "params": {
          "_tokenId": "- the fake NFT token Id to purchase"
        }
      },
      "getPrice()": {
        "details": "getPrice() returns the price of one NFT"
      }
    },
    "stateVariables": {
      "nftPrice": {
        "details": "Set the purchase price for each Fake NFT"
      },
      "tokens": {
        "details": "Maintain a mapping of Fake TokenID to Owner addresses"
      }
    },
    "version": 1
  },
  "userdoc": {
    "kind": "user",
    "methods": {},
    "version": 1
  }
}